:100000000C9475000C9492000C9492000C94920045
:100010000C9492000C9492000C9492000C94920018
:100020000C9492000C9492000C9492000C94920008
:100030000C9492000C9492000C9492000C949200F8
:100040000C9492000C9492000C9492000C949200E8
:100050000C9492000C9492000C9492000C949200D8
:100060000C9492000C94920007634236B79BD8A779
:100070001A39685618AEBAAB558C1D3CB7CC5763CD
:10008000BD6DEDFD753EF6177231BF000000803F7B
:1000900008000000BE922449123EABAAAA2ABECD97
:1000A000CCCC4C3E00000080BEABAAAAAA3E000009
:1000B0000000BF000000803F000000000008417801
:1000C000D3BB4387D1133D190E3CC3BD4282AD2B38
:1000D0003E68EC8276BED98FE1A93E4C80EFFFBE30
:1000E00001C4FF7F3F000000000011241FBECFEFBE
:1000F000D8E0DEBFCDBF11E0A0E0B1E0EEE0F0E17E
:1001000002C005900D92A039B107D9F721E0A0E90E
:10011000B1E001C01D92A83AB207E1F70E94D203F4
:100120000C9405080C940000429A00C0429808956F
:10013000CF93C82F662311F0419A01C0419843988C
:10014000229A239A249A259A2D982C982B982A98AB
:10015000CC230CF42D9AC6FD2C9AC5FD2B9AC4FD18
:100160002A9A0E9494002D982C982B982A98C3FDC7
:100170002D9AC2FD2C9AC1FD2B9AC0FD2A9A0E948D
:1001800094002A9A2B9A2C9A2D9ACF91089588231D
:1001900011F0419A01C04198439A229823982498DB
:1001A0002598429A00C01A9902C080E001C080E1FF
:1001B0001B9980621C9980641D998068429800C0D8
:1001C000429A00C01A9981601B9982601C998460D0
:1001D0001D99886042980895CF93DF93C0E6DAEEC8
:1001E00001C0219780E00E94C700882314F4209763
:1001F000C1F781E090E00197F1F7CD2B21F080E08D
:100200000E94C70001C08FEFDF91CF910895CF9377
:10021000C82F0E94EC0060E08C2F0E949800CF91C4
:100220000895611104C080580E9407010895805408
:100230000E940701089581E00E9407010895CF936D
:10024000C82F0E94EC00CA3049F4803410F480E4D6
:1002500001C080E080580E94070113C0803129F45A
:1002600060E080EC0E94980006C0803521F460E0D8
:1002700080E80E9498000E94EC0061E08C2F0E94B0
:100280009800CF910895CF93DF93EC012196FC0164
:100290008081882329F00E941F0189918111FBCF61
:1002A000DF91CF910895CF93C82F399A3B9A3A9A0C
:1002B000229A239A249A259AE0E9F9E33197F1F7F3
:1002C0002B9A2A9A0E949400E5EFF1E13197F1F719
:1002D0000E949400EAE3F0E03197F1F70E94940065
:1002E000EAE3F0E03197F1F72A980E949400EAE3FC
:1002F000F0E03197F1F788E20E9407010E94EC00DC
:100300008F3F69F088E00E9407010E941B0186E090
:100310000E9407018C2F0E94070180E001C08FEF2F
:10032000CF91089580E090E00E94CC0790939101D6
:1003300080939001089519990BC019990BC083EC13
:1003400099E00197F1F700C00000199BF8CF04C0B5
:1003500080E0089581E0089581E00895ECE7F0E001
:100360009081907F90839081892B8083EAE7F0E0F1
:10037000808180648083808186FDFDCF80917800BC
:10038000909179000895CF92DF92EF92FF92CF93F0
:10039000DF9380910101882309F498C00E941B011A
:1003A00082E091E00E94430161E080E00E9411013F
:1003B00089E091E00E94430160E080E00E94110129
:1003C00061E08DE00E9411018FE091E00E94430105
:1003D000109201017BC080E00E94AE01E80EF91E80
:1003E00083EC99E00197F1F700C000002197209776
:1003F00091F7C7016AE070E00E944907709393018A
:100400006093920160E086E00E94110183E191E037
:100410000E94430160E086E00E9411014AE064E925
:1004200071E080919201909193010E94B2070E9425
:100430004301CAE0D0E0E12CF12C84E00E94AE013F
:10044000E80EF91E83EC99E00197F1F700C0000077
:100450002197209791F7C7016AE070E00E94490751
:10046000882777FD8095982F0E94280422E430E6A3
:1004700045EE5BEB0E948C049B01AC0164E578EFD8
:100480008DE290E40E94EF046B017C0161E086E064
:100490000E94110185E191E00E94430161E086E044
:1004A0000E94110120E03CEF4FE456E4C701B60181
:1004B0000E948C040E94FA03DC01CB0147E064E94E
:1004C00071E00E94B2070E94430105C0CAE0D0E07B
:1004D000E12CF12C80CFDF91CF91FF90EF90DF9056
:1004E000CF900895AF92BF92CF92DF92EF92FF929A
:1004F0000F931F93CF93DF930E941B0181E08093A2
:1005000001018DE191E00E94430161E080E00E94E1
:1005100011018EE291E00E9443012FE38DE093E010
:10052000215080409040E1F700C000000E949B01F4
:100530008823E1F30E941B0181E08093010187E39E
:1005400091E00E94430161E080E00E94110187E494
:1005500091E00E94430180E00E94AE016C01E12C19
:10056000F12CC0E0D0E004E610E00F2EF5E0AF2E55
:10057000B12CF02D23C080E00E94AE01C80ED91E20
:10058000E11CF11C0C171D07C9F40C591F4F21E089
:10059000A21AB10861E08AE00E94110187E191E0AE
:1005A0000E94430161E08AE00E94110145E064E994
:1005B00071E0C5010E94B2070E94430183EC99E0FB
:1005C0000197F1F700C000002196C43F91E0D907E0
:1005D00091F6C701B60124EF31E040E050E00E94FF
:1005E0005D0769017A013093910120939001B9016F
:1005F00080E090E00E94D2070E941B0181E080937E
:10060000010188E591E00E94430161E080E00E94E1
:10061000110161E086E00E9411014AE064E971E0A5
:10062000C6010E94B2070E9443012FEB87E299E0C6
:10063000215080409040E1F700C00000DF91CF9151
:100640001F910F91FF90EF90DF90CF90BF90AF90F0
:100650000895EAE7F0E080818068808382E085B9D0
:1006600081E08AB91BB88CE00E9453010E941B01F3
:100670000E949201809190019091910101978E3F8B
:100680009F4F80F087E691E00E9443018FEB97E255
:1006900029E0815090402040E1F700C000000E9416
:1006A000720208950E941B0181E08093010184E79A
:1006B00091E00E94430160E086E00E94110183E125
:1006C00091E00E94430160E086E00E9411014AE04F
:1006D00064E971E080919001909191010E94B207CC
:1006E0000E9443018FEB97E229E081509040204027
:1006F000E1F700C0000008950F931F93CF93DF939D
:1007000080910001882309F443C00E941B0181E00D
:100710008093010189E791E00E94430161E080E05C
:100720000E9411018AE891E00E94430110920001A9
:100730002FC080E00E94AE01080F191F89EF90E0E2
:100740000197F1F700C000002197209791F7C801A9
:100750006AE070E00E9449077093930160939201F0
:1007600061E086E00E94110183E191E00E94430173
:1007700061E086E00E9411014AE064E971E0809145
:100780009201909193010E94B2070E94430105C01B
:10079000CAE0D0E000E010E0CCCFDF91CF911F9114
:1007A0000F9108950E942903C1E0DC2F0E94C3012C
:1007B000809192019091930120919001309191014B
:1007C0008217930780F48C3B924054F4CBB90E947B
:1007D0007C0380919201909193018C3B9240B4F301
:1007E0001BB8D09300010E949B018823F9F20E945C
:1007F0007202DCCF70D088F09F5790F0B92F992704
:10080000B751A0F0D1F0660F771F881F991F1AF01B
:10081000BA95C9F712C0B13081F077D0B1E0089530
:1008200074C0672F782F8827B85F39F0B93FCCF3B1
:10083000869577956795B395D9F73EF49095809511
:10084000709561957F4F8F4F9F4F0895E89409C031
:1008500097FB3EF490958095709561957F4F8F4FF3
:100860009F4F9923A9F0F92F96E9BB279395F69509
:10087000879577956795B795F111F8CFFAF4BB0F87
:1008800011F460FF1BC06F5F7F4F8F4F9F4F16C0EB
:10089000882311F096E911C0772321F09EE8872F75
:1008A000762F05C0662371F096E8862F70E060E031
:1008B0002AF09A95660F771F881FDAF7880F9695AA
:1008C000879597F9089557FD9058440F551F59F093
:1008D0005F3F71F04795880F97FB991F61F09F3F2D
:1008E00079F087950895121613061406551FF2CF56
:1008F0004695F1DF08C0161617061806991FF1CFA6
:1009000086957105610508940895E894BB276627CC
:100910007727CB0197F908950BD01AC10BD128F096
:1009200010D118F0952309F0D7C0DCC01124EECF08
:10093000CADFA0F3959FD1F3950F50E0551F629F3A
:10094000F001729FBB27F00DB11D639FAA27F00D28
:10095000B11DAA1F649F6627B00DA11D661F829F4F
:100960002227B00DA11D621F739FB00DA11D621F34
:10097000839FA00D611D221F749F3327A00D611D51
:10098000231F849F600D211D822F762F6A2F112433
:100990009F5750408AF0E1F088234AF0EE0FFF1F86
:1009A000BB1F661F771F881F91505040A9F79E3FBD
:1009B000510570F091C0AACF5F3FECF3983EDCF395
:1009C000869577956795B795F795E7959F5FC1F7FA
:1009D000FE2B880F911D9695879597F90895FA013A
:1009E000EE0FFF1F30962105310599F16115710554
:1009F00061F48038BFE39B0749F168949038810522
:100A000061F08038BFEF9B0741F0992342F5FF3F2B
:100A1000E1053105210511F1E8940894E795D90124
:100A2000AA2329F4AB2FBE2FF85FD0F310C0FF5FCD
:100A300070F4A695E0F7F73950F019F0FF3A38F462
:100A40009F779F930CD00F9007FC905808953EF02D
:100A500049C060E070E080E89FE308954FE79F772A
:100A60005F934F933F932F93C6D02F913F914F9118
:100A70005F9152DF05C019F40EF02EC046CF32C090
:100A80002ADFC8F39638C0F707F80F92E8942BE3F3
:100A90003AEA48EB5FE74EDF0F920F920F924DB7A5
:100AA0005EB70F92E8D0E8E6F0E01FD04F915F917B
:100AB000EF91FF91E595EE1FFF1F49F0FE57E068AB
:100AC0004427EE0F441FFA95E1F74195550B5AD094
:100AD0000F9007FE4EC0089597F99F6780E870E079
:100AE00060E008959FEF80EC0895DF93CF931F930C
:100AF0000F93FF92EF92DF927B018C01689405C007
:100B0000DA2EEF0115DFFE01E894A59125913591CC
:100B100045915591AEF3EF01F3D0FE019701A80185
:100B2000DA9479F7DF90EF90FF900F911F91CF91BA
:100B3000DF91089500240A94161617061806090670
:100B4000089500240A941216130614060506089543
:100B5000092E0394000C11F4882352F0BB0F40F4CB
:100B6000BF2B11F460FF04C06F5F7F4F8F4F9F4F0B
:100B700008959B01AC0160E070E080E89FE313C141
:100B8000ABCF79C1A8DEE8F39923D9F3940F511DB7
:100B9000BBF39150504094F059F0882332F0660F27
:100BA000771F881F91505040C1F79E3F510544F771
:100BB000880F911D9695879597F908955F3FACF042
:100BC000983E9CF0BB27869577956795B79508F476
:100BD000B1609395C1F7BB0F58F711F460FFE8CFF0
:100BE0006F5F7F4F8F4F9F4FE3CF90CE0EF043C18B
:100BF00079CF689471CF6FDEC8F39923D1F3C6F330
:100C0000DF93CF931F930F93FF92C92FDD27882384
:100C10002AF02197660F771F881FDAF720E030E06F
:100C200040E85FEB9FE3883920F0803E30F021966A
:100C30008F7755D0E0E9F0E003C051D0EDEBF0E064
:100C400054DF8B01BE01EC01FB2E6F5771097595C6
:100C5000771F880B990BFCDD28E132E741E35FE366
:100C600067DEAF2D9801AE01FF900F911F91CF91DC
:100C7000DF9146D06DCFFA01DC01AA0FBB1F9B01AB
:100C8000AC01BF5728F422273327442750781FC0D0
:100C9000B75188F4AB2F0024469537952795011C52
:100CA000A395D2F3002069F0220F331F441FB395A0
:100CB000DAF30DD013C061307105A0E88A07B94698
:100CC00030F49B01AC01662777278827907830960F
:100CD00021F0208331834283538308955058BB27EA
:100CE000AA270ED035CF26DF30F02BDF20F031F4ED
:100CF0009F3F11F41EF4F6CE0EF4E095E7FBECCE28
:100D0000E92FE1DD80F3BA176207730784079507BF
:100D100018F071F49EF5F9CD0EF4E0950B2EBA2F74
:100D2000A02D0B01B90190010C01CA01A0011124F1
:100D3000FF27591B99F0593F50F4503E68F11A169D
:100D4000F040A22F232F342F4427585FF3CF46952E
:100D500037952795A795F0405395C9F77EF41F1650
:100D6000BA0B620B730B840BBAF09150A1F0FF0F1A
:100D7000BB1F661F771F881FC2F70EC0BA0F621F06
:100D8000731F841F48F4879577956795B795F795F6
:100D90009E3F08F0B3CF9395880F08F09927EE0F88
:100DA0009795879508950CD0D3CECBDE40F0C2DE68
:100DB00030F021F45F3F19F08FCE5111A7CD92CEC4
:100DC00082DD98F39923C9F35523B1F3951B550B95
:100DD000BB27AA2762177307840738F09F5F5F4F0E
:100DE000220F331F441FAA1FA9F333D00E2E3AF04F
:100DF000E0E830D091505040E695001CCAF729D069
:100E0000FE2F27D0660F771F881FBB1F26173707B7
:100E10004807AB07B0E809F0BB0B802DBF01FF27E7
:100E200093585F4F2AF09E3F510568F055CE6ECD26
:100E30005F3FECF3983EDCF3869577956795B79521
:100E4000F7959F5FC9F7880F911D9695879597F93C
:100E50000895E1E0660F771F881FBB1F62177307B5
:100E60008407BA0720F0621B730B840BBA0BEE1FCA
:100E700088F7E09508959F3F31F0915020F48795D1
:100E800077956795B795880F911D9695879597F9F2
:100E9000089597FB072E16F4009407D077FD09D02C
:100EA0000E947C0707FC05D03EF4909581959F4FEA
:100EB0000895709561957F4F0895052E97FB1EF458
:100EC00000940E94740757FD07D00E94900707FC0A
:100ED00003D04EF40C9474075095409530952195AD
:100EE0003F4F4F4F5F4F0895909580957095619556
:100EF0007F4F8F4F9F4F0895AA1BBB1B51E107C027
:100F0000AA1FBB1FA617B70710F0A61BB70B881F99
:100F1000991F5A95A9F780959095BC01CD01089528
:100F2000A1E21A2EAA1BBB1BFD010DC0AA1FBB1FED
:100F3000EE1FFF1FA217B307E407F50720F0A21B5F
:100F4000B30BE40BF50B661F771F881F991F1A94CC
:100F500069F760957095809590959B01AC01BD01F6
:100F6000CF010895BB27FB015527AA27880F991F9A
:100F7000AA1FA41710F0A41B83955051B9F7A05DC8
:100F8000AA3308F0A95DA193009779F7B111B19345
:100F90001192CB010C94D707A8E1B0E042E050E0F9
:100FA0000C94E9070E94F707272F0C94F807DC013F
:100FB000FC01672F71917723E1F7329704C07C9190
:100FC0006D9370836291AE17BF07C8F30895DC017B
:100FD000CB01FC01F999FECF06C0F2BDE1BDF89A44
:100FE000319600B40D9241505040B8F70895262F25
:100FF000F999FECF1FBA92BD81BD20BD0FB6F894FE
:0E100000FA9AF99A0FBE01960895F894FFCF60
:10100E000101536F696C3A200053756E3A20006CE3
:10101E0075780020202020202020202000496E738B
:10102E006572742070726F626520616E64007072FA
:10103E006573732053310053657474696E67206E47
:10104E0065772064727900706F696E7420696E3AEC
:10105E0020352020202020004E65772064727920D4
:10106E00706F696E743A00454550524F4D20656D54
:10107E00707479004472793A002A2A576174657245
:10108E00696E67206E6F772A2A00536F696C3A007B
:00000001FF
